:100000000C94AC040C94F3040C94F3040C94F304DB
:100010000C94F3040C94F3040C94F3040C94F30484
:100020000C94F3040C94F3040C94EB1E0C94BE1F7C
:100030000C943C160C94F3040C94F3040C94F30409
:100040000C94F3040C94F3040C94F3040C94F30454
:100050000C94F3040C94A4160C94F3040C94F30481
:100060000C94F3040C94F3040C94F3040C94F30434
:100070000C94F3040C94F3040C94F3040C94F30424
:100080000C94F3040C94F3040C94F3040C94F30414
:100090000C94F3040C94F3040C94F3040C94F30404
:1000A0000C94F3040C94F3040C94F304290014004E
:1000B0001A000800150017001C0018000C001200A0
:1000C00013002D002E002A002B000400160007004C
:1000D00009000A000B000D000E000F0033002F0076
:1000E000300028000000E1001D001B000600190080
:1000F0000500110010003600370052003400E10006
:100100000000E000E20001512C00000000002C0083
:10011000E3003800500051004F00E00035001E00A1
:100120001F002000210022002300240025002600BB
:100130002700AA00A9004C0001001E021F02200295
:1001400021022202230224022502010001000100F3
:100150000100010000000100260227020100010049
:10016000010001000100010001004B00010001003D
:10017000000001000100010001000000000001007A
:10018000025131004A004E004D00010000703A005B
:100190003B003C003D003E003F004000410042006B
:1001A0004300440045000100390001000100010046
:1001B0000100010001000100010001000100010037
:1001C0000100010000000100010001000100010028
:1001D0000100010001000100010001000100010017
:1001E000000001000100010001000000000001000A
:1001F00001000100010001000100010001000100F7
:1002000001000100010001000100010001000100E6
:1002100001000100010001000100010001000100D6
:1002200001000100010001000100010001000100C6
:1002300001000100000001000100010001000100B7
:1002400001000100010001000100010001000100A6
:100250000000010001000100010000000000010099
:100260000100010001000100010001000100010086
:100270000100010001000100010001000100010076
:100280000100010001000100010001000100010066
:100290000100010001000100010001000100010056
:1002A0000100010000000100010001000100010047
:1002B0000100010001000100010001000100010036
:1002C0000000010001000100010000000000010029
:1002D0000100010001000100010001000100010016
:1002E0000100010001000100010001000100010006
:1002F00001000100010001000100010001000100F6
:1003000001000100010001000100010001000100E5
:1003100001000100000001000100010001000100D6
:1003200001000100010001000100010001000100C5
:1003300000000100010001000100000000000100B8
:1003400001000100010001000100010001000100A5
:100350000100010001000100010001000100010095
:100360000100010001000100010001000100010085
:100370000100010001000100010001000100010075
:100380000100010000000100010001000100010066
:100390000100010001000100010001000100010055
:1003A0000000010001000100010000000000010048
:1003B0000100010001000100010001000100010035
:1003C0000100010001000100010001000100010025
:1003D0000100010001000100010001000100010015
:1003E0000100010001000100010001000100010005
:1003F00001000100000001000100010001000100F6
:1004000001000100010001000100010001000100E4
:1004100000000100010001000100000000000100D7
:1004200001000100010001000100010001000100C4
:1004300001000100010001000100010001000100B4
:1004400001000100010001000100010001000100A4
:100450000100010001000100010001000100010094
:100460000100010000000100010001000100010085
:100470000100010001000100010001000100010074
:100480000000010001000100010000000000010067
:100490000100010001000100010001000100010054
:1004A0000100010001000100010001000100010044
:1004B0000100010001000100010001000100010034
:1004C0000100010001000100010001000100010024
:1004D0000100010000000100010001000100010015
:1004E0000100010001000100010001000100010004
:1004F00000000100010001000100000000000100F7
:1005000001000100010001000100010001000100E3
:1005100001000100010001000100010001000100D3
:1005200001000100010001000100010001000100C3
:1005300001000100010001000100010001000100B3
:1005400001000100000001000100010001000100A4
:100550000100010001000100010001000100010093
:100560000000010001000100010000000000010086
:100570000100010001000100010001000100010073
:100580000100010001000100010001000100010063
:100590000100010001000100010001000100010053
:1005A0000100010001000100010001000100010043
:1005B0000100010000000100010001000100010034
:1005C0000100010001000100010001000100010023
:1005D0000000010001000100010000000000010016
:1005E0000100010001000100010001000100010003
:1005F00001000100010001000100010001000100F3
:1006000001000100010001000100010001000100E2
:1006100001000100010001000100010001000100D2
:1006200001000100000001000100010001000100C3
:1006300001000100010001000100010001000100B2
:1006400000000100010001000100000000000100A5
:100650000100010001000100010001000100010092
:100660000100010001000100010001000100010082
:100670000100010001000100010001000100010072
:100680000100010001000100010001000100010062
:100690000100010000000100010001000100010053
:1006A0000100010001000100010001000100010042
:1006B0000000010001000100010000000000010035
:1006C0000100010001000100010001000100010022
:1006D0000100010001000100010001000100010012
:1006E0000100010001000100010001000100010002
:1006F00001000100010001000100010001000100F2
:1007000001000100000001000100010001000100E2
:1007100001000100010001000100010001000100D1
:1007200000000100010001000100000000000100C4
:1007300001000100010001000100010001000100B1
:1007400001000100010001000100010001000100A1
:100750000100010001000100010001000100010091
:100760000100010001000100010001000100010081
:100770000100010000000100010001000100010072
:100780000100010001000100010001000100010061
:100790000000010001000100010000000000010054
:1007A00001000100010001000100010012036B00C3
:1007B0006500790062006F00610072006400000053
:1007C000160371006D006B006200750069006C001B
:1007D00064006500720000000403090409026D0052
:1007E000040100A0FA09040000010301010009212D
:1007F000110100012240000705810308000A0904D5
:1008000001000103010200092111010001224D0034
:100810000705820308000A09040200010300000022
:100820000921110100012236000705830308000A8F
:100830000904030001030000000921110100012245
:100840003900070584032000011201100100000097
:1008500008EDFE606001000102000105010906A12A
:1008600001050719E029E7150025019508750181A3
:100870000205081901290595057501910295017573
:100880000391010507190029F71500250195F87551
:10089000018102C005010980A1018502160100261F
:1008A00003001A81002A8300751095018100C0059C
:1008B0000C0901A1018503160100269C021A010002
:1008C0002A9C02751095018100C005010902A10151
:1008D0000901A10005091901290515002501950542
:1008E0007501810295017503810105010930093106
:1008F0001581257F95027508810609381581257FA8
:10090000950175088106050C0A38021581257F9529
:100910000175088106C0C005010906A10105071976
:10092000E029E715002501950875018102950175FB
:1009300008810105081901290595057501910295A0
:1009400001750391010507190029FF150026FF0015
:10095000950675088100C00011241FBECFEFDAE0B4
:10096000DEBFCDBF04B603FE27C080913702909151
:100970003802A0913902B0913A028730904BA740DB
:10098000B04BD1F410923702109238021092390213
:1009900010923A0214BE84B7877F84BF0FB6F894D2
:1009A000A89580916000886180936000109260003B
:1009B0000FBEE0E0F8E3099511E0A0E0B1E0EAE065
:1009C000F6E402C005900D92AA33B107D9F722E0F0
:1009D000AAE3B1E001C01D92A733B207E1F70E947C
:1009E0003D1C0C9403230C94000080E090E00895DB
:1009F0000895089581E00895089581E008950C9484
:100A0000FA040E94A20E2FEF84E39CE02150804064
:100A10009040E1F700C000000C94C916FF920F93BC
:100A20001F93CF93DF938C01FC01C081D181809112
:100A30006E01811127C082818823F9F0CE010E94C6
:100A40001E14F82E682FCE010E94C913BE018F2DEF
:100A50000E943706EC01B8010E94FF04882331F0A0
:100A6000B801CE010E9448088111C2C080E0DF9128
:100A7000CF911F910F91FF900895CE010E94F31323
:100A8000F82EE4CFCE010E941E14BE01E1CFF80182
:100A90008281882359F30E940105E8CFF801828101
:100AA000882321F38091F70181608093F701DECFE5
:100AB000F8018281882309F4B2C00E94CC1581110B
:100AC00002C00E94B2150E94E91590E0909329029D
:100AD00080932802FE01E350F047E231F105C0F4B3
:100AE000EA58FA4F809128020C94B3229405960597
:100AF000A10598059A059C059E05A005A305A505D9
:100B0000A705B205A905AB05AD05AF05B105B4054F
:100B100080912802816080932802809128020E949F
:100B2000ED150E94A20EA2CF8260F5CF8460F3CFB4
:100B30008061F1CF8062EFCF8064EDCF8068EBCF32
:100B400084608860E8CF8E7FE6CF8D7FE4CF8B7F97
:100B5000E2CF8F7EE0CF8F7DDECF8F7BDCCF8F77B4
:100B6000DACF8B7F877FD7CF87FB992790F921E05A
:100B7000922790FB87F9CFCFF8018281882361F01B
:100B800010923C010E946E1690933B0180933A01B3
:100B900082E00E942C0C6ACF80913C0181110FC031
:100BA00080913A0190913B010E947A16883C910510
:100BB00030F486E20E94010B86E20E94DD0B82E0A7
:100BC0000E94330C53CF80913D0181110FC0809161
:100BD0003A0190913B010E947A16883C910530F4CD
:100BE00087E20E94010B87E20E94DD0B80E2E8CFE2
:100BF000C531F0E7DF07D8F4C23080E7D80708F046
:100C000057CFC115E0E7DE0709F441CFC130D04727
:100C100009F444CF81E080933C0180933D01C801F9
:100C2000DF91CF911F910F91FF900C94FD04CC3375
:100C300080E7D80709F4A0CFCD33D04759F7F801A2
:100C40008281882309F4BFCF10923D010E946E1665
:100C500090933B0180933A0180E29BCF0C949708DC
:100C60000C9499080C94FC040C9432060895972F68
:100C700070E02EE0929F600D711D1124FB0198E33E
:100C8000899FE00DF11D1124EE0FFF1FE455FF4F6A
:100C9000859194910895FC01EE0FFF1FE455F84FE4
:100CA0008591949108950E9437060E94C607811588
:100CB00020E4920708F08DC0811540E3940708F006
:100CC000E7C0803E910508F071C0803C910508F0B6
:100CD000CBC0883A910580F4853A910508F0C9C0E7
:100CE0008130910509F46EC020F08430910508F040
:100CF00069C080E090E008958D3B9105D0F7883A77
:100D0000910509F404C1893A910509F403C18A3AAD
:100D1000910509F402C18B3A910509F401C18C3A9D
:100D2000910509F400C18B3B910509F4FFC08C3B90
:100D3000910509F4FEC08D3A910509F4FDC0803B90
:100D4000910509F4FCC08E3A910509F4FBC08F3A75
:100D5000910509F4FAC0813B910509F4F9C0823B81
:100D6000910509F4F8C0833B910509F4F7C0843B71
:100D7000910509F4F6C0853B910509F4F5C0863B61
:100D8000910509F4F4C0873B910509F4F3C0883B51
:100D9000910509F4F2C0893B910509F4F1C08A3B41
:100DA000910509F4F0C080E094E408958F3F910527
:100DB00009F048F4803F910508F066C0883E91052F
:100DC00008F097CF0895811520E2920708F05EC0E1
:100DD0000895811543E5940760F5811522E5920792
:100DE00008F061C0811541E5940708F057C08115EE
:100DF00020E5920708F44FC09C0154E036952795F2
:100E00005A95E1F7922F9370482F437021E030E01C
:100E100002C0220F331F4A95E2F73C68392B8695B2
:100E20008695837040E2849FC0011124822B932B0E
:100E30000895811545E5940750F4811524E592073E
:100E400008F445C0982F8827846F906A089581150B
:100E500046E5940708F44FC09C01305621153041F7
:100E600008F047CF9F704BC0805C91090E944B06F1
:100E70000895853A910509F444C0863A910509F030
:100E800043C082E890E40895906508959F70EECF86
:100E90009927906C08959F70906A0895982F8827DD
:100EA000816F906A0895AC014370552721E030E0CE
:100EB00002C0220F331F4A95E2F78695869540E2DD
:100EC000849FC0011124822B932B9C680895AC0150
:100ED0004370552721E030E002C0220F331F4A95AE
:100EE000E2F78695869540E2849FC0011124822B0B
:100EF000932B9A680895982F882788279F7190626E
:100F0000089581E890E4089583E890E4089582EEDE
:100F100094E4089589EE94E408958AEE94E40895A3
:100F200085EB94E4089586EB94E4089583EB94E4D0
:100F3000089584EB94E4089587EB94E408958CEC91
:100F400094E408958DEC94E4089583E895E408957D
:100F50008AE895E4089582E995E4089584E995E4A2
:100F6000089581E296E4089583E296E4089584E288
:100F700096E4089585E296E4089586E296E408955D
:100F800087E296E408958AE296E41CCF82389105C0
:100F900049F1B0F48133910509F45AC048F489321B
:100FA000910509F450C08A32910509F456C008959C
:100FB0008533910509F442C08933910599F008956C
:100FC000833E910521F138F4803E910581F0823E07
:100FD0009105A1F00895863E910501F1873E9105A6
:100FE00031F10895209128022370E1F508952091B0
:100FF000280220FF12C089E390E008952091280282
:1010000022FF0BC024FF31C080E090E008952091C2
:10101000280222FD2DC024FDF7CF0895209128023B
:1010200023FFFBCF24FDF0CF87EE90E008952091C1
:10103000280223FFF0CF86EE90E008952091280249
:1010400025FD19C008952091280225FD17C0089597
:101050002091280226FD15C008952091280226FD22
:1010600013C0089580EE90E0089583EE90E0089517
:1010700082EE90E0089589E290E0089585E390E0A3
:1010800008958AE290E0089581E390E0C6CF089544
:101090000F931F93CF938C01FB018281811106C0B6
:1010A000C1E08C2FCF911F910F910895C0914B01FA
:1010B000C11125C00531104799F70E94470881E00A
:1010C00080934B010E946E1690934A0180934901D0
:1010D00010923E011092400110923F011092420185
:1010E0001092410110924401109243011092460166
:1010F000109245011092480110924701D2CF809181
:10110000490190914A010E947A16883C910540F667
:1011100080913E01E82FF0E0EE0FFF1FE15CFE4FF3
:10112000118300838F5F80933E01C0E0BACF0C949F
:10113000F8040C94F90485B7806885BF85B780688A
:1011400085BFA1E2B1E061E070E08D91E82FE2950A
:10115000EF70F0E041A18F709B0101C0220F8A95D2
:10116000EAF7922F9095942391A382A1822B82A3D8
:1011700081E0A532B80749F7A3E1B1E061E070E092
:101180008D91E82FE295EF70F0E041A18F709B0107
:1011900001C0220F8A95EAF7922F9095942391A38C
:1011A00082A1822B82A381E0A132B80749F7109275
:1011B00055011092540110924D0110924C01109261
:1011C00057011092560110924F0110924E01109249
:1011D0005901109258011092510110925001109231
:1011E0005B0110925A0110925301109252010C941B
:1011F0002E066F927F929F92AF92BF92CF92DF9214
:10120000EF92FF920F931F93CF93DF93CCE4D1E043
:1012100091E2E92E91E0F92E01E010E0BB24B394B5
:10122000C880D98019821882D7018D917D01E82F5D
:10123000E295EF70F0E091A18F70980101C0220F4C
:101240008A95EAF7892F822B81A382A1A22EA094EE
:101250008A2182A3B0EABA95F1F783E1682E81E092
:10126000782E80E090E0D3017D913D01472F42959B
:101270004F7050E0DA0190969C90488159817F70C0
:10128000D80102C0AA0FBB1F7A95E2F7BD01692100
:1012900009F067C0B801082E02C0660F771F0A94D4
:1012A000E2F7462B572B5983488301968E309105E0
:1012B000D1F681A18A2181A382A1282B22A3888132
:1012C0009981C816D90641F0B0925C010E946E1651
:1012D00090935E0180935D012296B1E0C435DB07F7
:1012E00009F09ECF80915C01882351F180915D01CE
:1012F00090915E010E947A16069710F180914C0140
:1013000090914D01909355018093540180914E012D
:1013100090914F0190935701809356018091500115
:1013200090915101909359018093580180915201FD
:101330009091530190935B0180935A0110925C014C
:101340000E94300681E0DF91CF911F910F91FF90B5
:10135000EF90DF90CF90BF90AF909F907F906F9075
:10136000089560E070E09DCFE82FF0E0EE0FFF1FE2
:10137000EC5AFE4F80819181089508959093640105
:10138000809363010895E0916301F09164013097C7
:1013900021F00190F081E02D099480E00895E09122
:1013A0006301F0916401309721F00280F381E02D18
:1013B00009940895E0916301F0916401309721F060
:1013C0000480F581E02D0994089520916101309108
:1013D00062012817390771F09093620180936101CF
:1013E000E0916301F0916401309721F00680F7816C
:1013F000E02D0994089520915F0130916001281734
:10140000390771F09093600180935F01E09163016F
:10141000F0916401309721F00084F185E02D09946A
:10142000089508950C94110A0E9465160E949B0865
:101430000C9436175F926F927F928F929F92AF9229
:10144000BF92CF92DF92EF92FF920F931F93CF93B1
:10145000DF93CDB7DEB72A970FB6F894DEBF0FBE85
:10146000CDBF0E94F90896E6A92E91E0B92E00E0C2
:1014700010E088248394912C502E802F0E94B40970
:101480007C01F501C190D1905F018C159D05B1F4EF
:101490000F5F1F4F0430110579F78FEF89838A831F
:1014A0001B820E946E168160782F9D838C834981F8
:1014B0005A816B818D810E94D30A36C08091F701D9
:1014C00081FD0E94BD0980E090E0CE24DF2434013C
:1014D000082E02C0660C771C0A94E2F796012621BA
:1014E0003721232B09F443C08E835F82E620F72047
:1014F00081E0EF2809F480E088870E946E16816001
:10150000782F9A8789874E815F8168858A850E94B6
:10151000D30A000F111FF801EA59FE4F8081918113
:1015200068267926718260820E94D6190E94C309BA
:1015300090916501891709F10E94C30980936501A3
:101540002A960FB6F894DEBF0FBECDBFDF91CF91C4
:101550001F910F91FF90EF90DF90CF90BF90AF90D1
:101560009F908F907F906F905F900C9434060196BF
:101570008E30910509F0ABCF8BCF2A960FB6F89439
:10158000DEBF0FBECDBFDF91CF911F910F91FF90B6
:10159000EF90DF90CF90BF90AF909F908F907F9013
:1015A0006F905F900895CF93DF93CDB7DEB72B9701
:1015B0000FB6F894DEBF0FBECDBF4F835887698743
:1015C0007A878B87DE01119686E0FD0111928A955C
:1015D000E9F785E0FE01379601900D928A95E1F7D3
:1015E00049815A816B817C818D819E810E946B1122
:1015F0002B960FB6F894DEBF0FBECDBFDF91CF9113
:101600000895882309F4D8C0823871F40E94C30970
:1016100081FDD2C089E30E94BF140E94831589E333
:101620000E94FB140C948315833859F40E94C3095B
:1016300080FDC2C083E50E94BF140E94831583E52C
:10164000EFCF843859F40E94C30982FDB5C087E406
:101650000E94BF140E94831587E4E2CF9CEF980F8D
:10166000913A18F40E94BF14DDCF90E2980F9830A1
:1016700050F4877091E001C0990F8A95EAF7892F9D
:101680000E943A15CFCF9BE5980F933070F4853ABE
:1016900031F0863A39F083E890E00C94E50981E86E
:1016A00090E0FBCF82E890E0F8CF98E5980F953175
:1016B00008F082C0883A09F440C0893A09F440C071
:1016C0008A3A09F440C08B3A09F440C08C3A09F4D4
:1016D00040C08B3B09F440C08C3B09F440C08D3ABC
:1016E00009F440C0803B09F440C08E3A09F440C080
:1016F0008F3A09F440C0813B09F440C0823B09F4B1
:1017000040C0833B09F440C0843B09F440C0853BA2
:1017100009F440C0863B09F440C0873B09F440C04F
:10172000883B09F440C0893B09F440C08A3B09F476
:1017300040C080E090E00C94FB0982EE90E0FBCF8B
:1017400089EE90E0F8CF8AEE90E0F5CF85EB90E05F
:10175000F2CF86EB90E0EFCF83EB90E0ECCF84EB21
:1017600090E0E9CF87EB90E0E6CF8CEC90E0E3CF20
:101770008DEC90E0E0CF83E891E0DDCF8AE891E066
:10178000DACF82E991E0D7CF84E991E0D4CF81E24A
:1017900092E0D1CF83E292E0CECF84E292E0CBCF51
:1017A00085E292E0C8CF86E292E0C5CF87E292E080
:1017B000C2CF8AE292E0BFCF0895882309F44BC0DC
:1017C000823871F40E94C30981FF45C089E30E94F9
:1017D000BF140E94831589E30E94FB140C948315A7
:1017E000833859F40E94C30980FF35C083E50E9405
:1017F000BF140E94831583E5EFCF843859F40E940B
:10180000C30982FF28C087E40E94BF140E94831589
:1018100087E4E2CF9CEF980F913AF0F290E2980FB4
:10182000983050F4877091E001C0990F8A95EAF7DB
:10183000892F0E944015D2CF9BE5980F933020F45A
:1018400080E090E00C94E509885A853120F480E02E
:1018500090E00C94FB090895882321F00E943A152A
:101860000C9483150895882321F00E9440150C9450
:10187000831508958F929F92AF92BF92DF92EF925D
:10188000FF920F931F93CF93DF937C01D62FC72F27
:10189000FC01058102950F70128111110E945915EA
:1018A0000E94B814D82E882371F0112331F180E200
:1018B0008D0F883010F182E00E94A1140E94B814AC
:1018C00091E0D82ED926EC2FE295EF708E2F90E084
:1018D000FC01E359F34F0C94B3227F0C7F0CD00C26
:1018E000D00C0F0D2D0DAD0CAD0C380DAD0CD30D76
:1018F000D30D450EAD0CAD0C4E0ED12CE4CF8C2F7C
:10190000807FCF70882311F0C295C07F1123A9F08A
:10191000CC2359F080E28D0F883010F0D11109C02E
:101920008C2F0E943A150E9483158D2F0E94010B67
:1019300014C08C2F0E944B15F6CF8D2F0E94DD0B0B
:10194000CC2359F080E28D0F883010F0D11124C0E3
:101950008C2F0E9440150E948315DD2009F4A5C13B
:101960000E94941480FDA1C1F70112820E948E147E
:101970000E940D13C7010E94610E0E948E14DF9118
:10198000CF911F910F91FF90EF90DF90BF90AF909C
:101990009F908F900C942E138C2F0E945115DBCFAB
:1019A0008C2F807FCF70803211F0C295C07FDD23F5
:1019B00069F0D13021F1112361F1002359F0F701D1
:1019C000858180FFB2CF8F70858304C0112361F0C1
:1019D000011104C08C2F0E942C0CBFCF8C2F013022
:1019E000D1F70E946D15B9CF011106C00E94701584
:1019F0008C2F0E94330CB1CF0130C1F7AECF112331
:101A000021F0063008F0A9CFE5CF053008F0A5CFCA
:101A1000EFCF002369F38D2F0E94DD0B9ECF8C2F1B
:101A200086958695837059F0813009F096CF112301
:101A300089F08D2F9C2F93700E94FB098ECF11236C
:101A400031F08D2F9C2F93700E94E50986CF80E0A6
:101A500090E0FACF80E090E0EFCF8D2F112329F0B6
:101A60000E94DF180E94CB1978CF0E944719FACF45
:101A70008C2F837009F048C011116FCF2D2F229544
:101A800026952770220F220F6D2F6F70862E912CB6
:101A9000A12CB12C022E04C0880C991CAA1CBB1CC2
:101AA0000A94D2F7D4FF1EC06FE070E080E090E0AF
:101AB00004C0660F771F881F991F2A95D2F760957B
:101AC000709580959095C695C695C370C23071F09B
:101AD000A0F4682979298A299B29C13091F00E94B4
:101AE000B6123BCF60E070E0CB01EDCF68297929D9
:101AF0008A299B290E94D21230CF0E94B612C501BA
:101B0000B4010E949A1229CF1123C9F18C2F817040
:101B1000882309F422CF2D2F229526952770220F96
:101B2000220F6D2F6F70862E912CA12CB12C022EBE
:101B300004C0880C991CAA1CBB1C0A94D2F7D4FFC1
:101B400020C06FE070E080E090E004C0660F771F77
:101B5000881F991F2A95D2F760957095809590956A
:101B6000C695C695C370C23081F0B0F46829792952
:101B70008A299B29C130A1F00E949013EECE869550
:101B8000C7CF60E070E0CB01EBCF682979298A29C3
:101B90009B290E94AC13E1CE0E949013C501B401B1
:101BA0000E947413DACE8D2F90E0FC01E05EF10903
:101BB000E531F10508F061C0E052F24F0C94B32218
:101BC000F50DF50DF50DF50DF50DF50DF50DF50D05
:101BD000F50DF50DF50DF50DF50DF50DF50DF50DF5
:101BE000020E100E170E1E0E280EDF708C2F8F7136
:101BF000112321F00E940D138D2FEDCE0E942E1384
:101C00008D2FF7CE112341F0053008F0A6CE8C2F92
:101C10008F710E945313A1CE063008F09ECEF7CFED
:101C2000112339F08C2F8F710E940D1396CE112342
:101C3000C9F38C2F8F710E942E138FCE112329F0A0
:101C40008C2F8F710E94F81288CE0E94EE1285CEE2
:101C5000112349F0CF718C2F0E940D1363E08C2F5C
:101C60000E9498147ACE81E00E94A114023008F4F8
:101C700074CE82E00E94A11470CE112319F00023CB
:101C800089F253CE0023A9F2C6CE4C2F4F706D2F90
:101C9000C7010E94F5040E9414125FCE4C2F4F70B2
:101CA0006D2FC7010E94360658CEDF91CF911F914C
:101CB0000F91FF90EF90DF90BF90AF909F908F902B
:101CC00008950F931F93CF93DF93EC01988189813F
:101CD0002B813C81232B39F08F3F19F481E09F3F0A
:101CE00019F080E001C081E080FD13C0CE010E94A8
:101CF0000E05882371F0688179818A810E946B14B6
:101D00008C010E94C8130E948F12B801CE010E945C
:101D10003A0CDF91CF911F910F9108950E945915B0
:101D20000E946A150E942C150E9483150E94791A40
:101D30000E94CB1980E090E00E94E50980E090E0ED
:101D40000C94FB090E9448150C948E0E0E9460149E
:101D5000E92FE295EF704E2F50E0FA013297EE3006
:101D6000F105D8F4EA54F14F0C94B322C40EC40E1A
:101D7000CD0ECD0ECF0ECD0ECD0ECD0EC40EC40E9B
:101D8000D40ECD0ECD0ED40E803F19F020F4803E3F
:101D900020F481E00895843FE1F380E00895803EDF
:101DA000C0F3813FD1F7F5CF93FB882780F90895E1
:101DB000CF93DF9300D000D01F92CDB7DEB70F9046
:101DC0000F900F900F900F90DF91CF910895CF93C8
:101DD000DF9300D000D000D0CDB7DEB726960FB687
:101DE000F894DEBF0FBECDBFDF91CF9108951F9352
:101DF000CF93DF93C0916F0116E080917001C813FB
:101E000004C0DF91CF911F910895D0E01C9FF00195
:101E10001D9FF00D1124EF58FE4F408151816281CA
:101E20007381848195810E94E70E2196C770E5CF6A
:101E30004091A1015091A2016091A3017091A40170
:101E40008091A5019091A6010C94E70E1F93CF936A
:101E5000DF938091A60182958F70D1F48091A301C8
:101E60008823B1F080916F01D0917001B091A101F0
:101E7000C091A2014091A4015091A501A1E0BF3FF2
:101E800009F0A0E0BA016095709516E08D1304C0CA
:101E9000DF91CF911F91089541155105D9F1CF3FA1
:101EA000D9F120E090E020FD3CC0189FF001199F7F
:101EB000F00D1124EF58FE4F21812C1332C02081E8
:101EC0002B132FC0228121112CC023813481241790
:101ED000350720F1241B350B283C310510F52091E6
:101EE000A6012F7020612093A60126E0289FF00113
:101EF000299FF00D1124EA58FE4F80818F70806178
:101F0000808381EA91E00E94610EDF91CF911F9161
:101F10000C94F70E21E0C6CF2A2FC4CF260F371F0F
:101F2000DBCF01968770B2CFAF92BF92CF92DF9294
:101F3000EF92FF920F931F93CF93DF93CDB7DEB74E
:101F400061970FB6F894DEBF0FBECDBF8C0185E060
:101F5000F801DE011D9601900D928A95E1F7D801F6
:101F60004C9111965C9111971296EC903091A101D1
:101F70006091A2018091A4019091A501009739F090
:101F80006F3F19F421E03F3F19F020E001C021E04C
:101F9000B22FB170BB2E20FD90C1F801C380D48058
:101FA000A090A301AA2009F432C12091A601C8166D
:101FB000D90610F1D601A81BB90BCD01FF24F3946B
:101FC000883C9105F0F0F12C207F09F0E9C07C2DD0
:101FD000D98AC88A6E2D89890E94D80E81EA91E03B
:101FE0000E94610EE1EAF1E086E0DF011D928A9530
:101FF000E9F70E94180F1EC0809590958C0D9D1DCD
:10200000DDCF822F807F09F084C0651325C0341393
:1020100023C0FE2CE11020C02F7020612093A60168
:102020000E94180F81EA91E00E94610E8091A60142
:10203000F80185838F2D61960FB6F894DEBF0FBE31
:10204000CDBFDF91CF911F910F91FF90EF90DF9067
:10205000CF90BF90AF900895CD2839F05F3F19F42D
:1020600081E04F3F19F080E001C081E080FD24C095
:1020700081E08E25F82FF170FF2E80FF3FC0809108
:102080006F012091700136E0821318C04D875E8782
:102090008D859E850E946014292F22952F702230F5
:1020A00008F1243030F59F7009F1D80115969C9104
:1020B000907FE1F4FB2CBECF80E0DCCF90E0389F36
:1020C000F001399FF00D1124EF58FE4F6181561336
:1020D00006C06081641303C06281E6120FC00196DE
:1020E0008770D2CF9F7011F0882321F3805E8830F3
:1020F00008F3C8010E94610EBF2CDCCFFE2CEE203D
:1021000009F498CF8091A60181608093A601F12CFB
:1021100091CF651314C0341312C0E11010C0809128
:10212000A601F8018583C8010E94610E86E0F801CE
:10213000A1EAB1E001900D928A95E1F75ACF4D875F
:102140005E878D859E850E94A60E882309F4BFC0F8
:10215000EE2009F4BCC02091A601822F82958F70D9
:1021600090E0029774F08091A1019091A20198876C
:102170008F831986DB86CA862C87CE0107960E943C
:10218000610E86E0F801A1EAB1E001900D928A9516
:10219000E1F70E94260F0E94180FFF24F3944ACF04
:1021A000651314C0341312C0E11010C08091A60151
:1021B000F8018583C8010E94610E86E0E1EAF1E042
:1021C000DF011D928A95E9F7FA2C34CF4D875E879F
:1021D0008D859E850E94A60E882309F478C0EE2086
:1021E00009F475C02091A601822F82958F7090E02E
:1021F00002973CF28091A1019091A2019A83898378
:102200001B82DD82CC822E83CE010196B8CFC81608
:10221000D90680F0F601E81BF90BCF01883C910547
:1022200070F0F12C7C2DD98AC88A6E2D89890E9484
:10223000D80ED8CE809590958C0D9D1DEFCFFE2C9D
:10224000EE2009F444C0651327C0341325C08091E3
:10225000A60180FD18C0982F92959F70292F30E01D
:102260002115310581F0D80115968C9315972F30E3
:10227000310509F458CF9F5F9295907F8F70892B1D
:1022800015968C9350CF86E0F801A1EAB1E0019059
:102290000D928A95E1F7CECE4D875E878D859E851E
:1022A0000E94A60E81116DCF8091A601816080935E
:1022B000A601C8010E94610EBDCEEE2041F04D87FF
:1022C0005E878D859E850E94A60E81115ACFC8011A
:1022D0000E94610E62CF1F93CF93DF93CDB7DEB71D
:1022E0002C970FB6F894DEBF0FBECDBF4F83588733
:1022F00069877A878B879C87CE0107960E94940F07
:10230000882349F19F8188852A853B85232B39F0D5
:102310008F3F19F481E09F3F19F080E001C081E018
:1023200080FD08C04F81588569857A858B859C859D
:102330000E94E70E16E080916F0190917001891361
:1023400043C02C960FB6F894DEBF0FBECDBFDF9111
:10235000CF911F91089586E0FE013796DE01119618
:1023600001900D928A95E1F79F8188852A853B85AA
:10237000232B39F08F3F19F481E09F3F19F080E063
:1023800001C081E080FDD6CF2091700130E0C9010D
:1023900001968770992740916F0150E08417950747
:1023A000A9F196E0929FD001939FB00D1124AF58F0
:1023B000BE4FFE01319601900D929A95E1F7809300
:1023C00070010E94F70EB6CF819FC00111248F5873
:1023D0009E4F0E94940F882309F4B3CFE0916F01C0
:1023E0001E9FF0011124EF58FE4F40815181628100
:1023F0007381848195810E94E70E80916F0190E046
:1024000001968770992780936F0195CF0E94A20E45
:102410001092700110926F01E1EAF1E086E0DF01B5
:102420001D928A95E9F78DCFEF92FF920F931F933C
:10243000CF93DF938C01892B81F0F12CEE24E39470
:10244000E8012196F8018491843770F4843008F013
:1024500062C08130B1F08230B1F1DF91CF911F9134
:102460000F91FF90EF900895853709F44FC008F45D
:102470003FC09CE7980F903780F78F770E94DD0B65
:102480004CC00E5F1F4FFE01849190E2980F983070
:1024900060F48770FE2D01C0FF0F8A95EAF78F2F39
:1024A0000E945C150E94831502C00E94010B8F2DB3
:1024B000882309F4C5CFEFE9FFE03197F1F700C0B9
:1024C00000008150F5CF0E5F1F4FFE01849190E216
:1024D000980F983050F48770FE2D01C0FF0F8A9539
:1024E000EAF78F2F0E946215DDCF0E94DD0BDFCF50
:1024F0000E5F1F4FFE01C491CC23C9F28FE99FE00C
:102500000197F1F700C00000C150F6CF0E5F1F4FDA
:10251000FE01F490CCCF0E94010B8E01C8CF08952C
:102520006093CE017093CF018093D0019093D1013D
:102530000C948E0E0F931F930091CE011091CF013A
:102540002091D0013091D101DC01CB01802B912B66
:10255000A22BB32B8093CE019093CF01A093D001F7
:10256000B093D1011F910F910C948E0E0F931F9376
:102570000091CE011091CF012091D0013091D10175
:10258000DC01CB0180239123A223B3238093CE01CE
:102590009093CF01A093D001B093D1011F910F91DF
:1025A0000C948E0E0F931F930091CE011091CF01CA
:1025B0002091D0013091D101DC01CB0180279127FE
:1025C000A227B3278093CE019093CF01A093D0018F
:1025D000B093D1011F910F910C948E0E1092CA01ED
:1025E0001092CB011092CC011092CD010C948E0E62
:1025F00041E050E060E070E004C0440F551F661FEA
:10260000771F8A95D2F74093CA015093CB0160930C
:10261000CC017093CD010C948E0E41E050E060E04F
:1026200070E004C0440F551F661F771F8A95D2F7CC
:102630008091CA019091CB01A091CC01B091CD01C4
:10264000842B952BA62BB72B8093CA019093CB019B
:10265000A093CC01B093CD010C948E0E41E050E0DC
:1026600060E070E004C0440F551F661F771F8A9515
:10267000D2F740955095609570958091CA019091E0
:10268000CB01A091CC01B091CD0184239523A62349
:10269000B7238093CA019093CB01A093CC01B09350
:1026A000CD010C948E0E41E050E060E070E004C07B
:1026B000440F551F661F771F8A95D2F78091CA0174
:1026C0009091CB01A091CC01B091CD0184279527A9
:1026D000A627B7278093CA019093CB01A093CC0182
:1026E000B093CD010C948E0E0F931F930091CA01ED
:1026F0001091CB012091CC013091CD01DC01CB01B7
:10270000802B912BA22BB32B8093CA019093CB01EA
:10271000A093CC01B093CD011F910F910C948E0E1C
:102720000F931F930091CA011091CB012091CC010E
:102730003091CD01DC01CB0180239123A223B3236F
:102740008093CA019093CB01A093CC01B093CD01AB
:102750001F910F910C948E0E0F931F930091CA013D
:102760001091CB012091CC013091CD01DC01CB0146
:1027700080279127A227B3278093CA019093CB018A
:10278000A093CC01B093CD011F910F910C948E0EAC
:1027900008952EE0929F800D1124982F977041E0AC
:1027A00001C0440F9A95EAF786958695869595E03F
:1027B000899FF0011124E955FE4F80E090E070E020
:1027C00050819B01082E02C0369527950A94E2F7A6
:1027D00021702195252724232527219301968530D3
:1027E000910571F708952EE0929F800D1124982F86
:1027F000977086958695869525E0829FA001112485
:1028000060E070E080E0FA01E60FF71FE955FE4F47
:10281000208130E0092E02C0369527950A94E2F710
:1028200021703327062E01C0220F0A94EAF7822B6B
:102830006F5F7F4F6530710531F70895BF92CF927A
:10284000DF92EF92FF920F931F93CF93DF938C0150
:10285000C090CA01D090CB01E090CC01F090CD01A6
:102860008091CE019091CF01A091D001B091D10182
:10287000C82AD92AEA2AFB2ACFE1D0E0BC2ED70108
:10288000C6010C2E04C0B695A795979587950A9416
:10289000D2F780FD0EC0219788F7B12C8B2DDF91E8
:1028A000CF911F910F91FF90EF90DF90CF90BF904D
:1028B0000895B8018C2F0E945306019761F3EECF63
:1028C000CF93DF93EC010E941E14BE010E945306B9
:1028D000DF91CF9108951F93CF93DF93EB019091F8
:1028E0006E01992339F0CB010E946014DF91CF91E2
:1028F0001F910895882369F0CB010E941E14182FA0
:10290000682FCE010E94C913BE01812F0E94530679
:10291000EDCFCB010E94F313182FF6CF8091D20197
:1029200085958595859508958091D2018770089544
:1029300098E0899F90011124622B6093D2010C943E
:102940000D132091D201809582238093D201982F7C
:10295000977069F430E0482F082E000C550B2417AF
:10296000350729F08595859585950C942E13089546
:102970009091D201977081E009F480E008959091E0
:1029800012019923D9F09091280297FF17C0982F30
:102990009695969596959F3131F1E0910001F091D1
:1029A0000101E90FF11D877021E030E001C0220F25
:1029B0008A95EAF78181822B818308952091000115
:1029C00030910101F90132969FEF40E05191851756
:1029D00051F09F3F19F4511101C0942F4F5F4E31B8
:1029E000A9F79F3F09F40895290F311D97FD3A95E6
:1029F000F90182830895909112019923E9F0909151
:102A0000280297FF19C0982F9695969596959F3115
:102A100011F1E0910001F0910101E90FF11D282F62
:102A2000277081E090E001C0880F2A95EAF7809531
:102A30009181892381830895E0910001F091010142
:102A40009F01225E3F4F9281891301C0128231960D
:102A5000E217F307C1F7089581E090E0E0910001EB
:102A6000F0910101E80FF91F108201968032910563
:102A7000A9F708959091F601892B8093F6010895A6
:102A8000982F90958091F60189238093F6010895FF
:102A90001092F60108959091F501892B8093F5012C
:102AA0000895982F90958091F50189238093F501E1
:102AB00008951092F50108959091F401892B809367
:102AC000F4010895982F90958091F40189238093C3
:102AD000F40108951092F40108958093D3010895AC
:102AE0001092D30108952091000130910101F90164
:102AF0003196205E3F4F80E0919191118F5FE217F8
:102B0000F307D1F70895E0910001F0910101809160
:102B1000F6018083E0910001F091010180819091A4
:102B2000F501892B8083E0910001F0910101808102
:102B30009091F401892B80839091D301992361F0C6
:102B4000E0910001F09101018081892B80830E9436
:102B5000731581111092D3018091000190910101B0
:102B60000C94CF096DEE7EEF80E090E00E94ED22A4
:102B700060E082E090E00E94DB2260E083E090E091
:102B80000E94DB2260E084E090E00E94DB2260E0B3
:102B900085E090E00C94DB2280E090E00E94D5225A
:102BA00021E08D3E9E4F09F020E0822F089582E0C3
:102BB00090E00C94CD22682F82E090E00C94DB2210
:102BC00083E090E00C94CD22682F83E090E00C9499
:102BD000DB2284E090E00C94CD22682F84E090E02A
:102BE0000C94DB2280912E02843039F11092F8018E
:102BF00020E488E190E00FB6F894A89580936000F7
:102C00000FBE2093600080E00E94340683B7817F6E
:102C1000846083BF83B7816083BF7894889583B7CE
:102C20008E7F83BF0FB6F894A8958091600088616D
:102C300080936000109260000FBE089508950C9478
:102C40001E16CF930E941F160E94F9080E941E169E
:102C5000C0E08C2F0E94B409892B31F4CF5FC430BF
:102C6000C1F780E0CF91089581E0FCCF0E94A20ED1
:102C70000E94C3090C9434061F920F920FB60F9254
:102C800011248F939F93AF93BF938091F80181118B
:102C900013C08091240290912502A0912602B09148
:102CA00027024196A11DB11D809324029093250215
:102CB000A0932602B0932702BF91AF919F918F916D
:102CC0000F900FBE0F901F90189582E084BD93E087
:102CD00095BD9AEF97BD80936E0008952FB7F89435
:102CE0008091240290912502A0912602B0912702A2
:102CF0002FBF0895CF92DF92EF92FF920F931F9311
:102D00002FB7F89440912402509125026091260239
:102D1000709127022FBF6A017B01EE24FF248C01F2
:102D200020E030E0C016D106E206F30650F0481B62
:102D3000590BCA011F910F91FF90EF90DF90CF9038
:102D4000089541505109F3CF1F920F920FB60F9281
:102D500011248F939F93AF93BF93809124029091FE
:102D60002502A0912602B09127020196A11DB11D56
:102D70008093240290932502A0932602B093270209
:102D8000BF91AF919F918F910F900FBE0F901F90A9
:102D900018950E94701EF8942FEF87EA91E6215053
:102DA00080409040E1F700C0000087E090EBDC013C
:102DB0008093370290933802A0933902B0933A027D
:102DC0009CE088E10FB6F894A895809360000FBE50
:102DD00090936000FFCFAF92BF92CF92DF92EF92BD
:102DE000FF920F931F93CF93C0E0CC24C394D12CB8
:102DF000E82EF12C8C2F0E94B4095C0100E010E059
:102E0000C601002E02C0880F991F0A94E2F78A219A
:102E10009B21892B99F40F5F1F4F0E30110581F70D
:102E2000CF5FC43039F780E0CF911F910F91FF90B1
:102E3000EF90DF90CF90BF90AF900895602F7C2FE0
:102E400080E00E943706E816F90629F781E0ECCF0A
:102E5000CF93C82F8CE20E94EB16882321F08C2F91
:102E6000CF910C94EB1680E0CF910895CF930E9400
:102E7000CC15811102C00E94B215C5E6C15009F0FF
:102E8000E9C089E20E942817811118C18AE20E94D4
:102E9000281781110E94B21585E00E942817811120
:102EA0000E94C9160E94D7158093F70187E00E94FF
:102EB0002817882389F08BE10E942817882309F4BA
:102EC000D2C08091F70181FB992790F921E09227E8
:102ED00090FB81F98093F7018091F7010E94DB1547
:102EE0000E94E91590E0909329028093280280EED9
:102EF0000E942817882341F080912802982F9095EE
:102F000090FB80F98093280289E30E942817882388
:102F100059F08091280281FB992790F921E09227AE
:102F200090FB81F98093280282EE0E942817882363
:102F300059F08091280282FB992790F921E092278D
:102F400090FB82F98093280286EE0E94281788233E
:102F500059F08091280283FB992790F921E092276C
:102F600090FB83F98093280283EE0E942817882320
:102F700059F08091280284FB992790F921E092274B
:102F800090FB84F98093280285E30E942817882308
:102F900059F08091280285FB992790F921E092272A
:102FA00090FB85F98093280281E30E9428178823EB
:102FB00059F08091280286FB992790F921E0922709
:102FC00090FB86F98093280281E10E9428178823CC
:102FD00059F08091280287FB992790F921E09227E8
:102FE00090FB87F980932802809128020E94ED15BA
:102FF00087E20E942817C82F8EE10E9428178111AE
:10300000C2608FE10E9428178111C46080E20E9493
:1030100028178111C86081E20E9428178111C061C0
:1030200082E20E9428178111C06283E20E94281761
:103030008111C06484E20E9428178823C9F1C06806
:103040008C2F0E94E4156C2F70E080E090E0CF910F
:103050000C9490120E94F9088FE39CE90197F1F714
:1030600000C000000BCF8EE00E942817882351F08B
:103070008091F70182FB992790F921E0922790FB3C
:1030800082F928CF80E10E9428179091F7018823C8
:1030900051F093FB882780F921E0822780FB93F988
:1030A0009093F70119CF892F809580FB90F9F8CF85
:1030B000C111C6CF0E94E015682FC6CFCF910895E9
:1030C0008091FB0180FF12C06091050185E0689F3F
:1030D000B0011124759567957595679560387105F0
:1030E000A8F56115710581F581E0089581FF09C09A
:1030F0006091050185E0689FB00111247595679581
:10310000EDCF82FF07C06091050185E0689FB001A7
:103110001124E4CF9091FC019923A1F06091040166
:10312000961788F72091050185E0289F90011124CA
:10313000929FA001939F500D112470E0CA010E943C
:103140009F22CCCF65E070E0862F08958FE7089529
:103150008091FB0180FF0CC06091030170E07595C8
:103160006795759567956115710539F581E0089545
:1031700081FF06C06091030170E075956795F3CFFC
:1031800082FF08C06091030170E06038710558F358
:103190008FE708958091FC01882369F06091020116
:1031A000861780F790910301899FC001112470E078
:1031B0000E949F22EACF61E070E0862F0895803F51
:1031C00031F40E94601881958093FF010895813F3A
:1031D00019F40E946018F8CF823F31F40E94601801
:1031E00081958093FE010895833F19F40E94601831
:1031F000F8CF893F29F40E94A8188093000208950F
:103200008A3F21F40E94A8188195F7CF8B3F31F4B3
:103210000E94A81881958093010208958C3F19F4AB
:103220000E94A818F8CF843F31F48091FD0181609D
:103230008093FD010895853F21F48091FD01826016
:10324000F7CF863F21F48091FD018460F1CF873F65
:1032500021F48091FD018860EBCF883F21F48091BB
:10326000FD018061E5CF8D3F31F48091FB018160EC
:103270008093FB0108958E3F21F48091FB018260D1
:10328000F7CF8F3FB9F78091FB018460F1CF803F8A
:10329000C1F48091FF0187FD1092FF018091FE0132
:1032A00081110EC08091FF0181110AC0809100023E
:1032B000811106C080910102811102C01092FC01AF
:1032C0000895813F29F48091FF0118162CF3E6CF71
:1032D0009091FE01823F29F497FFE0CF1092FE010A
:1032E000DDCF833F19F41916CCF3D8CF893F39F4D9
:1032F00080910002181694F610920002CFCF8A3FF8
:1033000029F48091000287FFC9CFF6CF8B3F39F4B3
:103310008091010287FFC2CF10920102BFCF8C3F84
:1033200029F4809101021816BCF3B8CF843F31F420
:103330008091FD018E7F8093FD01B0CF853F21F408
:103340008091FD018D7FF7CF863F21F48091FD01B3
:103350008B7FF1CF873F21F48091FD01877FEBCFF9
:10336000883F21F48091FD018F7EE5CF8D3F31F4C0
:103370008091FB018E7F8093FB0190CF8E3F21F4E3
:103380008091FB018D7FF7CF8F3F09F087CF809130
:10339000FB018B7FF0CF8DEF91E00E94DA090E9454
:1033A0006E169093FA018093F90108951F93CF93BD
:1033B000DF938091F9019091FA010E947A16AC0195
:1033C0009091FC019923D1F02091060130E0421741
:1033D000530780F08091FE01C091FF01D09100025F
:1033E00010910102811111C0C1117FC0D1117DC0A6
:1033F00011117BC0DF91CF911F910895209107019A
:103400008AE0289F90011124E2CF9F3F19F09F5F2F
:103410009093FC01181624F40E9460188093FE011A
:103420008091FE0187FF05C00E94601881958093FE
:10343000FE011C1624F40E9460188093FF01809105
:10344000FF0187FF05C00E94601881958093FF01EE
:103450006091FE01662331F1C091FF01CC2311F18F
:10346000062E000C770B880B990B0E94A62123E3F4
:1034700033E343E35FE30E940A220E946E216093DC
:10348000FE016C2FCC0F770B880B990B0E94A621A5
:1034900023E333E343E35FE30E940A220E946E21A9
:1034A0006093FF011D1624F40E94A8188093000267
:1034B0008091000287FF05C00E94A8188195809323
:1034C0000002111624F40E94A81880930102809132
:1034D000010287FF05C00E94A81881958093010210
:1034E000DF91CF911F910C94CB199F3F09F08FCFA3
:1034F000A0CFEDEFF1E085E0DF011D928A95E9F7BD
:103500001092FC011092FB0108958091220208950F
:10351000CF93DF9300D01F92CDB7DEB79C0180918F
:103520002E02843019F593E099833B832A8390938C
:10353000E9008FEF9091E800815095FD06C095ED70
:103540009A95F1F700008111F5CF8091E80085FF91
:103550000DC040E050E063E070E0CE0101960E94B3
:10356000E31C8091E8008E778093E8000F900F9025
:103570000F90DF91CF910895CF93DF9300D01F92EA
:10358000CDB7DEB720912E02243031F522E0298319
:10359000805891099B838A8383E08093E9008FEFB1
:1035A0009091E800815095FD06C095ED9A95F1F750
:1035B00000008111F5CF8091E80085FF0DC040E04B
:1035C00050E063E070E0CE0101960E94E31C809120
:1035D000E8008E778093E8000F900F900F90DF91B6
:1035E000CF9108959C0180912E028430F9F482E0FD
:1035F0008093E9009FEF8091E800915085FD06C01F
:1036000085ED8A95F1F700009111F5CF8091E800E2
:1036100085FF0CC040E050E065E070E0C9010E9409
:10362000E31C8091E8008E778093E8000895CF93A3
:10363000DF93EC0180912E02843071F5909112019C
:10364000992369F19091280297FF29C08093E9009E
:103650008FEF9091E800815095FD06C095E19A9515
:10366000F1F700008111F5CF8091E80085FF14C0CB
:1036700040E050E060E270E0CE010E94E31C8091E7
:10368000E8008E778093E80080E2FE01A2E0B2E0DD
:1036900001900D928A95E1F7DF91CF91089581E035
:1036A0008093E9008FEF9091E800815095FD06C06E
:1036B00095ED9A95F1F700008111F5CF8091E80022
:1036C00085FFEACF40E050E068E070E0D5CF809120
:1036D0002D02811109C00E94701E0E94CD1E809192
:1036E000E20084608093E200089510922D02089514
:1036F000089508950C94361642E061EC81E00E9432
:10370000ED1D42E061EC82E00E94ED1D42E061ECC3
:1037100083E00E94ED1D42E261EC84E00C94ED1D1B
:1037200080913002833009F455C030F4813071F15A
:10373000823009F491C008958A3009F47DC08B303D
:1037400009F463C0893009F044C080912F028132AE
:1037500009F03FC08091330290913402009711F03C
:103760000397B9F58091E800877F8093E800809106
:10377000E80082FF2AC08091F100809322028091AC
:10378000E8008B778093E8000C94221E80912F0232
:10379000813AF9F48091E800877F8093E800809176
:1037A000330290913402892B61F460E282E092E06E
:1037B00070E00E94321D8091E8008B778093E800D2
:1037C000089560E080E090E0F3CF80912E028111B7
:1037D000CECF089580912F02813AD9F7809133029C
:1037E00090913402892BA9F78091E800877F80931C
:1037F000E8008091E80080FFFCCF80911201809367
:10380000F1008091E8008E77BDCF80912F02813248
:1038100001F78091330290913402892BD1F6809187
:10382000E800877F8093E8000E94221E8091310289
:10383000809312010C94A20E80912F02813249F6DE
:103840008091E800877F8093E8000E94221E80918B
:10385000320280932302089580912F02813A09F069
:10386000B8CF8091E800877F8093E8008091E800DE
:1038700080FFFCCF80912302C2CF84B7877F84BFB3
:103880000FB6F894A89580916000886180936000DD
:10389000109260000FBE80E880936100109261007A
:1038A0000E94120A0E94701E0E94CD1E8091E200AA
:1038B00084608093E20078940E9452210E94140A4E
:1038C00088E091E00E94BE0980912E02853019F0B7
:1038D0000E941A0AF9CF0E94F21580912C028823C7
:1038E00099F30E942116882379F30E94CD1CECCF16
:1038F000292F33272330310579F158F42130310550
:10390000F1F02230310519F180E090E020E030E064
:103910001AC02132310599F122323105A9F76430FC
:1039200098F770E0FB01EE0FFF1FE75DFE4F20816F
:1039300031816B5D7E4FFB01808190E004C082E1AC
:1039400090E029E438E0FA013183208308958DE680
:1039500090E02CED37E0F7CF99278130910561F0A9
:1039600028F0029789F6ECEAF7E002C0E8EDF7E00C
:10397000849190E09F01E7CFE0ECF7E0F9CF64306D
:1039800008F0C2CFE62FF0E0EE0FFF1FEF5CFE4F16
:103990002081318189E090E0D6CF80E189BD82E14C
:1039A00089BD09B400FEFDCF8091D8008F7D809342
:1039B000D8008091E00082608093E0008091E00078
:1039C00081FDFCCF0895AF92BF92DF92EF92FF92FC
:1039D0000F931F93CF93DF93EC018B017A010E9429
:1039E000411ED82E811124C0E114F10439F0F701F1
:1039F00080819181081B190BC80FD91FA12CB12CF4
:103A000001151105A9F08091E80085FD22C0809183
:103A1000E8008E778093E800E114F104A1F0F7014B
:103A200080819181A80EB91EB182A08285E0D82E36
:103A30008D2DDF91CF911F910F91FF90EF90DF902F
:103A4000BF90AF9008950E94411E8823C9F2D82EDE
:103A5000EFCF89918093F10001501109FFEFAF1A68
:103A6000BF0ACECF20913502309136022617370794
:103A7000A8F06115710529F42091E8002E772093B4
:103A8000E800FC0120E06115710551F4211108C026
:103A90008091E80082FF33C080E00895B901F1CF42
:103AA00080912E028823B9F18530B9F18091E80028
:103AB00083FD2FC08091E80082FDEACF8091E8006D
:103AC00080FFE1CF2091F3008091F20090E0922BF3
:103AD0006115710519F08830910550F021E00897C3
:103AE00009F020E08091E8008E778093E800CBCF4A
:103AF00021912093F100615071090196E9CF8091E5
:103B00002E02882341F0853041F08091E80083FF48
:103B1000BFCF81E0089582E0089583E00895209169
:103B200035023091360226173707A8F06115710566
:103B300029F42091E8002E772093E800FC0120E092
:103B40006115710551F4211108C08091E80082FFD0
:103B500034C080E00895B901F1CF80912E0288230E
:103B6000C1F18530C1F18091E80083FD30C08091C2
:103B7000E80082FDEACF8091E80080FFE1CF20914C
:103B8000F3008091F20090E0922B6115710519F01D
:103B90008830910550F021E0089709F020E08091ED
:103BA000E8008E778093E800CBCF24912093F1003A
:103BB0003196615071090196E8CF80912E028823D9
:103BC00041F0853041F08091E80083FFBECF81E075
:103BD000089582E0089583E00895982F973028F0A3
:103BE0008F708093E90081E008959093E900981721
:103BF00051F07091EC002091ED005091F00021FD0A
:103C000006C09F5FEBCF242F762F50E0F8CF309186
:103C1000EB003E7F3093EB003091ED003D7F309321
:103C2000ED003091EB0031603093EB007093EC00CD
:103C30002093ED005093F0002091EE0027FDE1CF9E
:103C400080E0089580912F0287FF13C08091E800E3
:103C500082FF06C08091E8008B778093E80004C063
:103C600080912E028111F2CF089580912E02882337
:103C7000D9F38091E80080FFF8CF8091E8008E773B
:103C8000ECCF2091E4003091E50085E69091EC00C6
:103C900090FD20C09091E80092FD20C090912E02EE
:103CA000992391F0953091F09091EB0095FD10C023
:103CB0004091E4005091E5004217530739F38150D9
:103CC0009A0121F784E0089582E0089583E0089541
:103CD00081E008959091E80090FFE0CF80E00895A2
:103CE0000E94DE1E0E94E61EE0EEF0E08081816010
:103CF0008083E8EDF0E080818F77808319BCA7EDA9
:103D0000B0E08C918E7F8C9380818F7E8083109227
:103D10002D0208950F931F93CF93DF930E94DE1E11
:103D20000E94E61EC8EDD0E088818F778883888165
:103D30008068888388818F7D888319BC10922E02C9
:103D400010922A0210922C0210922B0200EE10E028
:103D5000F80180818B7F808388818160888342E045
:103D600060E080E00E94ED1DE1EEF0E080818E7F5A
:103D70008083E2EEF0E080818160808380818860D2
:103D80008083F80180818E7F808388818061888331
:103D9000DF91CF911F910F910895E8EDF0E08081C0
:103DA0008F7E8083E7EDF0E080818160808384E016
:103DB00082BF81E080932D020C948A1EE8EDF0E032
:103DC00080818E7F80831092E20008951092DA0045
:103DD0001092E10008951F920F920FB60F921124D6
:103DE0002F933F934F935F936F937F938F939F9303
:103DF000AF93BF93EF93FF938091E10082FF0BC0DD
:103E00008091E20082FF07C08091E1008B7F809368
:103E1000E1000E9451218091DA0080FF19C0809159
:103E2000D80080FF15C08091DA008E7F8093DA0081
:103E30008091D90080FF94C080E189BD82E189BD75
:103E400009B400FEFDCF81E080932E020E94671B23
:103E50008091E10080FF19C08091E20080FF15C0D1
:103E60008091E2008E7F8093E2008091E200806189
:103E70008093E2008091D80080628093D80019BCC2
:103E800085E080932E020E94791B8091E10084FFDF
:103E900029C08091E20084FF25C080E189BD82E1D4
:103EA00089BD09B400FEFDCF8091D8008F7D80933D
:103EB000D8008091E1008F7E8093E1008091E20044
:103EC0008F7E8093E2008091E20081608093E20027
:103ED00080912A02882309F449C084E080932E024D
:103EE0000E947A1B8091E10083FF29C08091E2004B
:103EF00083FF25C08091E100877F8093E10082E00D
:103F000080932E0210922A028091E1008E7F80938E
:103F1000E1008091E2008E7F8093E2008091E200D8
:103F200080618093E20042E060E080E00E94ED1D4D
:103F30008091F00088608093F0000E94781BFF91D0
:103F4000EF91BF91AF919F918F917F916F915F9111
:103F50004F913F912F910F900FBE0F901F9018958A
:103F600019BC10922E020E94751B72CF8091E30043
:103F700087FD02C081E0B2CF83E0B0CF1F920F92E5
:103F80000FB60F9211242F933F934F935F936F932C
:103F90007F938F939F93AF93BF93CF93EF93FF93B1
:103FA000C091E900CF708091EC001092E9008091FF
:103FB000F000877F8093F00078940E94FA1F10929F
:103FC000E9008091F00088608093F000C093E900E0
:103FD000FF91EF91CF91BF91AF919F918F917F9181
:103FE0006F915F914F913F912F910F900FBE0F9066
:103FF0001F9018951F93CF93DF93CDB7DEB7AA9785
:104000000FB6F894DEBF0FBECDBFEFE2F2E08091B5
:10401000F100819322E0E733F207C9F70E94901B79
:104020008091E80083FF44C080912F02909130027C
:10403000492F50E04A30510508F03AC0FA01ED5DD1
:10404000FF4D0C94B3222D20512058205120582090
:10405000AC20CF20582024213121803879F08238BB
:1040600039F5809133028F708093E9008091EB00E5
:1040700085FB882780F91092E90006C080912B0209
:1040800090912C02911182609091E800977F90931B
:10409000E8008093F1001092F1008091E8008E77A3
:1040A0002DC0282F2D7F21F48823D1F0823059F1A3
:1040B0008091E80083FF0AC08091E800877F8093A9
:1040C000E8008091EB0080628093EB00AA960FB627
:1040D000F894DEBF0FBECDBFDF91CF911F91089541
:1040E00080913102813021F7933009F080E0809394
:1040F0002C021092E9008091E800877F8093E8000D
:104100000E94221ED5CF809131028111F2CF809181
:1041100033028F7069F28093E9002091EB0020FF59
:10412000E8CF933031F48091EB0080628093EB0014
:10413000E0CF9091EB0090619093EB0021E030E0B4
:1041400001C0220F8A95EAF72093EA001092EA0054
:104150008091EB008860EACF8111AACF10913102E3
:104160001F778091E3008078812B8093E30080911A
:10417000E800877F8093E8000E94221E8091E8007B
:1041800080FFFCCF8091E30080688093E3001111F1
:1041900004C082E080932E028BCF83E0FBCF805857
:1041A000823008F085CF80913102909132028C3DAF
:1041B00023E09207A1F583E08A838AE289834FB7DF
:1041C000F894DE01139620E03EE051E2E32FF0E0A8
:1041D00050935700E49120FF03C0E295EF703F5FDA
:1041E000EF708E2F90E0EA30C0F0C7968D939D93CC
:1041F0002F5F243159F74FBF8091E800877F80936C
:10420000E8006AE270E0CE0101960E94321D8091C2
:10421000E8008B778093E8004BCFC096E7CFAE01E4
:104220004F5F5F4F609133020E94781CBC01892B65
:1042300009F43ECF9091E800977F9093E800898140
:104240009A810E948F1DE3CF803809F031CF809191
:10425000E800877F8093E80080912A028093F10034
:104260001CCF811125CF90913102923008F020CFE0
:104270008091E800877F8093E80090932A020E9453
:10428000221E80912A02882311F084E005C08091CB
:10429000E30087FDFACF81E080932E020E947C1B11
:1042A00007CF0895CF9380912E02882399F0C09173
:1042B000E900CF708091EC0080FD0EC080E0C82B3B
:1042C0001092E9008091E80083FD0E94FA1FCF70F0
:1042D000C093E900CF91089580E8F1CF0E94752145
:1042E0006894B1110C94042208950E94E92188F089
:1042F0009F5798F0B92F9927B751B0F0E1F0660FAA
:10430000771F881F991F1AF0BA95C9F714C0B130EA
:1043100091F00E940322B1E008950C940322672FCC
:10432000782F8827B85F39F0B93FCCF38695779519
:104330006795B395D9F73EF4909580957095619502
:104340007F4F8F4F9F4F0895E89409C097FB3EF42D
:1043500090958095709561957F4F8F4F9F4F9923D2
:10436000A9F0F92F96E9BB279395F6958795779550
:104370006795B795F111F8CFFAF4BB0F11F460FF10
:104380001BC06F5F7F4F8F4F9F4F16C0882311F068
:1043900096E911C0772321F09EE8872F762F05C07C
:1043A000662371F096E8862F70E060E02AF09A9517
:1043B000660F771F881FDAF7880F9695879597F90C
:1043C000089557FD9058440F551F59F05F3F71F005
:1043D0004795880F97FB991F61F09F3F79F087956C
:1043E0000895121613061406551FF2CF4695F1DFF5
:1043F00008C0161617061806991FF1CF8695710585
:10440000610508940895E894BB2766277727CB01B8
:1044100097F908950E941D220C948E220E948022FA
:1044200038F00E94872220F0952311F00C94772217
:104430000C947D2211240C9404220E94E12170F33B
:10444000959FC1F3950F50E0551F629FF001729F39
:10445000BB27F00DB11D639FAA27F00DB11DAA1F48
:10446000649F6627B00DA11D661F829F2227B00D95
:10447000A11D621F739FB00DA11D621F839FA00D20
:10448000611D221F749F3327A00D611D231F849F70
:10449000600D211D822F762F6A2F11249F575040C7
:1044A0009AF0F1F088234AF0EE0FFF1FBB1F661F42
:1044B000771F881F91505040A9F79E3F510580F00B
:1044C0000C9477220C9404225F3FE4F3983ED4F3DB
:1044D000869577956795B795F795E7959F5FC1F7AF
:1044E000FE2B880F911D9695879597F9089597F95A
:1044F0009F6780E870E060E008959FEF80EC08958A
:1045000000240A94161617061806090608950024B2
:104510000A9412161306140605060895092E03942C
:10452000000C11F4882352F0BB0F40F4BF2B11F4A0
:1045300060FF04C06F5F7F4F8F4F9F4F089597FBC1
:10454000072E16F4009407D077FD09D00E94B922F7
:1045500007FC05D03EF4909581959F4F0895709586
:1045600061957F4F0895EE0FFF1F0590F491E02DA8
:104570000994AA1BBB1B51E107C0AA1FBB1FA617AA
:10458000B70710F0A61BB70B881F991F5A95A9F7FC
:1045900080959095BC01CD010895F999FECF92BD0B
:1045A00081BDF89A992780B50895A8E1B0E042E06E
:1045B00050E00C94F522262FF999FECF92BD81BDD3
:1045C000F89A019700B4021639F01FBA20BD0FB651
:1045D000F894FA9AF99A0FBE08950196272F0E942F
:1045E000DC220C94DB22DC01CB01FC01F999FECF2B
:1045F00006C0F2BDE1BDF89A319600B40D9241506B
:0A4600005040B8F70895F894FFCF7A
:10460A00D4012808140A321E851A171BF21ABC1A7A
:10461A00881A01679637363534C69766949091F6AC
:10462A00F7F0F1F4F5404D36391709CA0894085BDA
:0A463A0008EE070708200839080001
:00000001FF
